{
  "contractName": "NFTMarket",
  "abi": [
    {
      "inputs": [],
      "stateMutability": "nonpayable",
      "type": "constructor"
    },
    {
      "anonymous": false,
      "inputs": [
        {
          "indexed": true,
          "internalType": "uint256",
          "name": "itemId",
          "type": "uint256"
        },
        {
          "indexed": true,
          "internalType": "address",
          "name": "nftContract",
          "type": "address"
        },
        {
          "indexed": true,
          "internalType": "uint256",
          "name": "tokenId",
          "type": "uint256"
        },
        {
          "indexed": false,
          "internalType": "uint256",
          "name": "sellerId",
          "type": "uint256"
        },
        {
          "indexed": false,
          "internalType": "address",
          "name": "seller",
          "type": "address"
        },
        {
          "indexed": false,
          "internalType": "address",
          "name": "owner",
          "type": "address"
        },
        {
          "indexed": false,
          "internalType": "uint256",
          "name": "price",
          "type": "uint256"
        },
        {
          "indexed": false,
          "internalType": "bool",
          "name": "sold",
          "type": "bool"
        }
      ],
      "name": "MarketItemCreated",
      "type": "event"
    },
    {
      "inputs": [],
      "name": "getListingPrice",
      "outputs": [
        {
          "internalType": "uint256",
          "name": "",
          "type": "uint256"
        }
      ],
      "stateMutability": "view",
      "type": "function",
      "constant": true
    },
    {
      "inputs": [
        {
          "internalType": "address",
          "name": "nftContract",
          "type": "address"
        },
        {
          "internalType": "uint256",
          "name": "tokenId",
          "type": "uint256"
        },
        {
          "internalType": "uint256",
          "name": "price",
          "type": "uint256"
        },
        {
          "internalType": "uint256",
          "name": "sellerId",
          "type": "uint256"
        },
        {
          "internalType": "bool",
          "name": "isAuction",
          "type": "bool"
        },
        {
          "internalType": "uint256",
          "name": "sellDate",
          "type": "uint256"
        }
      ],
      "name": "createMarketItem",
      "outputs": [],
      "stateMutability": "payable",
      "type": "function",
      "payable": true
    },
    {
      "inputs": [
        {
          "internalType": "address",
          "name": "nftContract",
          "type": "address"
        },
        {
          "internalType": "uint256",
          "name": "itemId",
          "type": "uint256"
        }
      ],
      "name": "createMarketSale",
      "outputs": [],
      "stateMutability": "payable",
      "type": "function",
      "payable": true
    },
    {
      "inputs": [
        {
          "internalType": "uint256",
          "name": "itemId",
          "type": "uint256"
        },
        {
          "internalType": "uint256",
          "name": "bid",
          "type": "uint256"
        },
        {
          "internalType": "address",
          "name": "buyer",
          "type": "address"
        }
      ],
      "name": "createBid",
      "outputs": [
        {
          "components": [
            {
              "internalType": "uint256",
              "name": "itemId",
              "type": "uint256"
            },
            {
              "internalType": "uint256",
              "name": "bid",
              "type": "uint256"
            },
            {
              "internalType": "address payable",
              "name": "buyer",
              "type": "address"
            }
          ],
          "internalType": "struct NFTMarket.Bid[]",
          "name": "",
          "type": "tuple[]"
        }
      ],
      "stateMutability": "payable",
      "type": "function",
      "payable": true
    },
    {
      "inputs": [
        {
          "internalType": "uint256",
          "name": "itemId",
          "type": "uint256"
        }
      ],
      "name": "createBidSale",
      "outputs": [],
      "stateMutability": "nonpayable",
      "type": "function"
    },
    {
      "inputs": [
        {
          "internalType": "uint256",
          "name": "itemId",
          "type": "uint256"
        }
      ],
      "name": "fetchBids",
      "outputs": [
        {
          "components": [
            {
              "internalType": "uint256",
              "name": "itemId",
              "type": "uint256"
            },
            {
              "internalType": "uint256",
              "name": "bid",
              "type": "uint256"
            },
            {
              "internalType": "address payable",
              "name": "buyer",
              "type": "address"
            }
          ],
          "internalType": "struct NFTMarket.Bid[]",
          "name": "",
          "type": "tuple[]"
        }
      ],
      "stateMutability": "view",
      "type": "function",
      "constant": true
    },
    {
      "inputs": [],
      "name": "fetchMarketItems",
      "outputs": [
        {
          "components": [
            {
              "internalType": "uint256",
              "name": "itemId",
              "type": "uint256"
            },
            {
              "internalType": "address",
              "name": "nftContract",
              "type": "address"
            },
            {
              "internalType": "uint256",
              "name": "tokenId",
              "type": "uint256"
            },
            {
              "internalType": "uint256",
              "name": "sellerId",
              "type": "uint256"
            },
            {
              "internalType": "address payable",
              "name": "seller",
              "type": "address"
            },
            {
              "internalType": "address payable",
              "name": "owner",
              "type": "address"
            },
            {
              "internalType": "uint256",
              "name": "price",
              "type": "uint256"
            },
            {
              "internalType": "bool",
              "name": "isAuction",
              "type": "bool"
            },
            {
              "internalType": "uint256",
              "name": "sellDate",
              "type": "uint256"
            },
            {
              "internalType": "bool",
              "name": "sold",
              "type": "bool"
            }
          ],
          "internalType": "struct NFTMarket.MarketItem[]",
          "name": "",
          "type": "tuple[]"
        }
      ],
      "stateMutability": "view",
      "type": "function",
      "constant": true
    },
    {
      "inputs": [],
      "name": "fetchMyNFTs",
      "outputs": [
        {
          "components": [
            {
              "internalType": "uint256",
              "name": "itemId",
              "type": "uint256"
            },
            {
              "internalType": "address",
              "name": "nftContract",
              "type": "address"
            },
            {
              "internalType": "uint256",
              "name": "tokenId",
              "type": "uint256"
            },
            {
              "internalType": "uint256",
              "name": "sellerId",
              "type": "uint256"
            },
            {
              "internalType": "address payable",
              "name": "seller",
              "type": "address"
            },
            {
              "internalType": "address payable",
              "name": "owner",
              "type": "address"
            },
            {
              "internalType": "uint256",
              "name": "price",
              "type": "uint256"
            },
            {
              "internalType": "bool",
              "name": "isAuction",
              "type": "bool"
            },
            {
              "internalType": "uint256",
              "name": "sellDate",
              "type": "uint256"
            },
            {
              "internalType": "bool",
              "name": "sold",
              "type": "bool"
            }
          ],
          "internalType": "struct NFTMarket.MarketItem[]",
          "name": "",
          "type": "tuple[]"
        }
      ],
      "stateMutability": "view",
      "type": "function",
      "constant": true
    },
    {
      "inputs": [],
      "name": "fetchItemsCreated",
      "outputs": [
        {
          "components": [
            {
              "internalType": "uint256",
              "name": "itemId",
              "type": "uint256"
            },
            {
              "internalType": "address",
              "name": "nftContract",
              "type": "address"
            },
            {
              "internalType": "uint256",
              "name": "tokenId",
              "type": "uint256"
            },
            {
              "internalType": "uint256",
              "name": "sellerId",
              "type": "uint256"
            },
            {
              "internalType": "address payable",
              "name": "seller",
              "type": "address"
            },
            {
              "internalType": "address payable",
              "name": "owner",
              "type": "address"
            },
            {
              "internalType": "uint256",
              "name": "price",
              "type": "uint256"
            },
            {
              "internalType": "bool",
              "name": "isAuction",
              "type": "bool"
            },
            {
              "internalType": "uint256",
              "name": "sellDate",
              "type": "uint256"
            },
            {
              "internalType": "bool",
              "name": "sold",
              "type": "bool"
            }
          ],
          "internalType": "struct NFTMarket.MarketItem[]",
          "name": "",
          "type": "tuple[]"
        }
      ],
      "stateMutability": "view",
      "type": "function",
      "constant": true
    }
  ],
  "bytecode": "0x60806040526658d15e1762800060045534801561001b57600080fd5b50600160008190555033600360006101000a81548173ffffffffffffffffffffffffffffffffffffffff021916908373ffffffffffffffffffffffffffffffffffffffff160217905550612bdd806100746000396000f3fe6080604052600436106100865760003560e01c80637f95c99f116100595780637f95c99f14610128578063951fe56314610165578063c23b139e1461018e578063c2d3c07b146101aa578063f064c32e146101da57610086565b80630f08efe01461008b57806312e85585146100b6578063144d149c146100e1578063202e3740146100fd575b600080fd5b34801561009757600080fd5b506100a0610205565b6040516100ad91906125ba565b60405180910390f35b3480156100c257600080fd5b506100cb61054b565b6040516100d891906126fc565b60405180910390f35b6100fb60048036038101906100f6919061207b565b610555565b005b34801561010957600080fd5b50610112610909565b60405161011f91906125ba565b60405180910390f35b34801561013457600080fd5b5061014f600480360381019061014a9190612104565b610cd3565b60405161015c9190612598565b60405180910390f35b34801561017157600080fd5b5061018c60048036038101906101879190612104565b610daf565b005b6101a860048036038101906101a3919061203f565b611386565b005b6101c460048036038101906101bf919061212d565b61163f565b6040516101d19190612598565b60405180910390f35b3480156101e657600080fd5b506101ef611b79565b6040516101fc91906125ba565b60405180910390f35b606060006102136001611f43565b905060006102216002611f43565b61022b6001611f43565b6102359190612843565b90506000808267ffffffffffffffff81111561027a577f4e487b7100000000000000000000000000000000000000000000000000000000600052604160045260246000fd5b6040519080825280602002602001820160405280156102b357816020015b6102a0611f67565b8152602001906001900390816102985790505b50905060005b8481101561054057600073ffffffffffffffffffffffffffffffffffffffff16600560006001846102ea91906127ed565b815260200190815260200160002060050160009054906101000a900473ffffffffffffffffffffffffffffffffffffffff1673ffffffffffffffffffffffffffffffffffffffff16141561052d57600060018261034791906127ed565b905060006005600083815260200190815260200160002090508060405180610140016040529081600082015481526020016001820160009054906101000a900473ffffffffffffffffffffffffffffffffffffffff1673ffffffffffffffffffffffffffffffffffffffff1673ffffffffffffffffffffffffffffffffffffffff16815260200160028201548152602001600382015481526020016004820160009054906101000a900473ffffffffffffffffffffffffffffffffffffffff1673ffffffffffffffffffffffffffffffffffffffff1673ffffffffffffffffffffffffffffffffffffffff1681526020016005820160009054906101000a900473ffffffffffffffffffffffffffffffffffffffff1673ffffffffffffffffffffffffffffffffffffffff1673ffffffffffffffffffffffffffffffffffffffff168152602001600682015481526020016007820160009054906101000a900460ff16151515158152602001600882015481526020016009820160009054906101000a900460ff161515151581525050848681518110610510577f4e487b7100000000000000000000000000000000000000000000000000000000600052603260045260246000fd5b602002602001018190525060018561052891906127ed565b945050505b808061053890612907565b9150506102b9565b508094505050505090565b6000600454905090565b6002600054141561059b576040517f08c379a00000000000000000000000000000000000000000000000000000000081526004016105929061269c565b60405180910390fd5b6002600081905550600084116105e6576040517f08c379a00000000000000000000000000000000000000000000000000000000081526004016105dd906126bc565b60405180910390fd5b600454341461062a576040517f08c379a00000000000000000000000000000000000000000000000000000000081526004016106219061265c565b60405180910390fd5b6106346001611f51565b60006106406001611f43565b90506040518061014001604052808281526020018873ffffffffffffffffffffffffffffffffffffffff1681526020018781526020018581526020013373ffffffffffffffffffffffffffffffffffffffff168152602001600073ffffffffffffffffffffffffffffffffffffffff168152602001868152602001841515815260200183815260200160001515815250600560008381526020019081526020016000206000820151816000015560208201518160010160006101000a81548173ffffffffffffffffffffffffffffffffffffffff021916908373ffffffffffffffffffffffffffffffffffffffff160217905550604082015181600201556060820151816003015560808201518160040160006101000a81548173ffffffffffffffffffffffffffffffffffffffff021916908373ffffffffffffffffffffffffffffffffffffffff16021790555060a08201518160050160006101000a81548173ffffffffffffffffffffffffffffffffffffffff021916908373ffffffffffffffffffffffffffffffffffffffff16021790555060c0820151816006015560e08201518160070160006101000a81548160ff02191690831515021790555061010082015181600801556101208201518160090160006101000a81548160ff0219169083151502179055509050508673ffffffffffffffffffffffffffffffffffffffff166323b872dd3330896040518463ffffffff1660e01b815260040161086c93929190612561565b600060405180830381600087803b15801561088657600080fd5b505af115801561089a573d6000803e3d6000fd5b50505050858773ffffffffffffffffffffffffffffffffffffffff16827f79f8c05bb09c0956360a67fcd99d7cd58b143c2e5965443ccf2238950961eac5873360008b60006040516108f0959493929190612717565b60405180910390a4506001600081905550505050505050565b606060006109176001611f43565b905060008060005b838110156109c0573373ffffffffffffffffffffffffffffffffffffffff166005600060018461094f91906127ed565b815260200190815260200160002060050160009054906101000a900473ffffffffffffffffffffffffffffffffffffffff1673ffffffffffffffffffffffffffffffffffffffff1614156109ad576001836109aa91906127ed565b92505b80806109b890612907565b91505061091f565b5060008267ffffffffffffffff811115610a03577f4e487b7100000000000000000000000000000000000000000000000000000000600052604160045260246000fd5b604051908082528060200260200182016040528015610a3c57816020015b610a29611f67565b815260200190600190039081610a215790505b50905060005b84811015610cc8573373ffffffffffffffffffffffffffffffffffffffff1660056000600184610a7291906127ed565b815260200190815260200160002060050160009054906101000a900473ffffffffffffffffffffffffffffffffffffffff1673ffffffffffffffffffffffffffffffffffffffff161415610cb5576000600182610acf91906127ed565b905060006005600083815260200190815260200160002090508060405180610140016040529081600082015481526020016001820160009054906101000a900473ffffffffffffffffffffffffffffffffffffffff1673ffffffffffffffffffffffffffffffffffffffff1673ffffffffffffffffffffffffffffffffffffffff16815260200160028201548152602001600382015481526020016004820160009054906101000a900473ffffffffffffffffffffffffffffffffffffffff1673ffffffffffffffffffffffffffffffffffffffff1673ffffffffffffffffffffffffffffffffffffffff1681526020016005820160009054906101000a900473ffffffffffffffffffffffffffffffffffffffff1673ffffffffffffffffffffffffffffffffffffffff1673ffffffffffffffffffffffffffffffffffffffff168152602001600682015481526020016007820160009054906101000a900460ff16151515158152602001600882015481526020016009820160009054906101000a900460ff161515151581525050848681518110610c98577f4e487b7100000000000000000000000000000000000000000000000000000000600052603260045260246000fd5b6020026020010181905250600185610cb091906127ed565b945050505b8080610cc090612907565b915050610a42565b508094505050505090565b606060066000838152602001908152602001600020805480602002602001604051908101604052809291908181526020016000905b82821015610da4578382906000526020600020906003020160405180606001604052908160008201548152602001600182015481526020016002820160009054906101000a900473ffffffffffffffffffffffffffffffffffffffff1673ffffffffffffffffffffffffffffffffffffffff1673ffffffffffffffffffffffffffffffffffffffff168152505081526020019060010190610d08565b505050509050919050565b600060066000838152602001908152602001600020805480602002602001604051908101604052809291908181526020016000905b82821015610e80578382906000526020600020906003020160405180606001604052908160008201548152602001600182015481526020016002820160009054906101000a900473ffffffffffffffffffffffffffffffffffffffff1673ffffffffffffffffffffffffffffffffffffffff1673ffffffffffffffffffffffffffffffffffffffff168152505081526020019060010190610de4565b50505050905060006005600084815260200190815260200160002060405180610140016040529081600082015481526020016001820160009054906101000a900473ffffffffffffffffffffffffffffffffffffffff1673ffffffffffffffffffffffffffffffffffffffff1673ffffffffffffffffffffffffffffffffffffffff16815260200160028201548152602001600382015481526020016004820160009054906101000a900473ffffffffffffffffffffffffffffffffffffffff1673ffffffffffffffffffffffffffffffffffffffff1673ffffffffffffffffffffffffffffffffffffffff1681526020016005820160009054906101000a900473ffffffffffffffffffffffffffffffffffffffff1673ffffffffffffffffffffffffffffffffffffffff1673ffffffffffffffffffffffffffffffffffffffff168152602001600682015481526020016007820160009054906101000a900460ff16151515158152602001600882015481526020016009820160009054906101000a900460ff16151515158152505090506000151581610120015115151461105f576040517f08c379a0000000000000000000000000000000000000000000000000000000008152600401611056906126dc565b60405180910390fd5b42816101000151106110a6576040517f08c379a000000000000000000000000000000000000000000000000000000000815260040161109d906125fc565b60405180910390fd5b600082600184516110b79190612843565b815181106110ee577f4e487b7100000000000000000000000000000000000000000000000000000000600052603260045260246000fd5b60200260200101519050816080015173ffffffffffffffffffffffffffffffffffffffff166108fc82602001519081150290604051600060405180830381858888f19350505050158015611146573d6000803e3d6000fd5b50816020015173ffffffffffffffffffffffffffffffffffffffff166323b872dd30836040015185604001516040518463ffffffff1660e01b81526004016111909392919061252a565b600060405180830381600087803b1580156111aa57600080fd5b505af11580156111be573d6000803e3d6000fd5b5050505080604001516005600086815260200190815260200160002060050160006101000a81548173ffffffffffffffffffffffffffffffffffffffff021916908373ffffffffffffffffffffffffffffffffffffffff16021790555060016005600086815260200190815260200160002060090160006101000a81548160ff0219169083151502179055506112546002611f51565b600360009054906101000a900473ffffffffffffffffffffffffffffffffffffffff1673ffffffffffffffffffffffffffffffffffffffff166108fc6004549081150290604051600060405180830381858888f193505050501580156112be573d6000803e3d6000fd5b5060005b600284516112d09190612843565b81101561137f576000848281518110611312577f4e487b7100000000000000000000000000000000000000000000000000000000600052603260045260246000fd5b60200260200101519050806040015173ffffffffffffffffffffffffffffffffffffffff166108fc82602001519081150290604051600060405180830381858888f1935050505015801561136a573d6000803e3d6000fd5b5050808061137790612907565b9150506112c2565b5050505050565b600260005414156113cc576040517f08c379a00000000000000000000000000000000000000000000000000000000081526004016113c39061269c565b60405180910390fd5b600260008190555060006005600083815260200190815260200160002060060154905060006005600084815260200190815260200160002060020154905081341461144c576040517f08c379a00000000000000000000000000000000000000000000000000000000081526004016114439061261c565b60405180910390fd5b6005600084815260200190815260200160002060040160009054906101000a900473ffffffffffffffffffffffffffffffffffffffff1673ffffffffffffffffffffffffffffffffffffffff166108fc349081150290604051600060405180830381858888f193505050501580156114c8573d6000803e3d6000fd5b508373ffffffffffffffffffffffffffffffffffffffff166323b872dd3033846040518463ffffffff1660e01b815260040161150693929190612561565b600060405180830381600087803b15801561152057600080fd5b505af1158015611534573d6000803e3d6000fd5b50505050336005600085815260200190815260200160002060050160006101000a81548173ffffffffffffffffffffffffffffffffffffffff021916908373ffffffffffffffffffffffffffffffffffffffff16021790555060016005600085815260200190815260200160002060090160006101000a81548160ff0219169083151502179055506115c66002611f51565b600360009054906101000a900473ffffffffffffffffffffffffffffffffffffffff1673ffffffffffffffffffffffffffffffffffffffff166108fc6004549081150290604051600060405180830381858888f19350505050158015611630573d6000803e3d6000fd5b50505060016000819055505050565b6060823414611683576040517f08c379a000000000000000000000000000000000000000000000000000000000815260040161167a906125dc565b60405180910390fd5b600060066000868152602001908152602001600020805480602002602001604051908101604052809291908181526020016000905b82821015611754578382906000526020600020906003020160405180606001604052908160008201548152602001600182015481526020016002820160009054906101000a900473ffffffffffffffffffffffffffffffffffffffff1673ffffffffffffffffffffffffffffffffffffffff1673ffffffffffffffffffffffffffffffffffffffff1681525050815260200190600101906116b8565b50505050905060006005600087815260200190815260200160002060405180610140016040529081600082015481526020016001820160009054906101000a900473ffffffffffffffffffffffffffffffffffffffff1673ffffffffffffffffffffffffffffffffffffffff1673ffffffffffffffffffffffffffffffffffffffff16815260200160028201548152602001600382015481526020016004820160009054906101000a900473ffffffffffffffffffffffffffffffffffffffff1673ffffffffffffffffffffffffffffffffffffffff1673ffffffffffffffffffffffffffffffffffffffff1681526020016005820160009054906101000a900473ffffffffffffffffffffffffffffffffffffffff1673ffffffffffffffffffffffffffffffffffffffff1673ffffffffffffffffffffffffffffffffffffffff168152602001600682015481526020016007820160009054906101000a900460ff16151515158152602001600882015481526020016009820160009054906101000a900460ff16151515158152505090506000825111156119895781600183516119009190612843565b81518110611937577f4e487b7100000000000000000000000000000000000000000000000000000000600052603260045260246000fd5b6020026020010151602001518511611984576040517f08c379a000000000000000000000000000000000000000000000000000000000815260040161197b9061263c565b60405180910390fd5b6119d1565b8060c001518510156119d0576040517f08c379a00000000000000000000000000000000000000000000000000000000081526004016119c79061267c565b60405180910390fd5b5b6006600087815260200190815260200160002060405180606001604052808881526020018781526020018673ffffffffffffffffffffffffffffffffffffffff168152509080600181540180825580915050600190039060005260206000209060030201600090919091909150600082015181600001556020820151816001015560408201518160020160006101000a81548173ffffffffffffffffffffffffffffffffffffffff021916908373ffffffffffffffffffffffffffffffffffffffff160217905550505060066000878152602001908152602001600020805480602002602001604051908101604052809291908181526020016000905b82821015611b6a578382906000526020600020906003020160405180606001604052908160008201548152602001600182015481526020016002820160009054906101000a900473ffffffffffffffffffffffffffffffffffffffff1673ffffffffffffffffffffffffffffffffffffffff1673ffffffffffffffffffffffffffffffffffffffff168152505081526020019060010190611ace565b50505050925050509392505050565b60606000611b876001611f43565b905060008060005b83811015611c30573373ffffffffffffffffffffffffffffffffffffffff1660056000600184611bbf91906127ed565b815260200190815260200160002060040160009054906101000a900473ffffffffffffffffffffffffffffffffffffffff1673ffffffffffffffffffffffffffffffffffffffff161415611c1d57600183611c1a91906127ed565b92505b8080611c2890612907565b915050611b8f565b5060008267ffffffffffffffff811115611c73577f4e487b7100000000000000000000000000000000000000000000000000000000600052604160045260246000fd5b604051908082528060200260200182016040528015611cac57816020015b611c99611f67565b815260200190600190039081611c915790505b50905060005b84811015611f38573373ffffffffffffffffffffffffffffffffffffffff1660056000600184611ce291906127ed565b815260200190815260200160002060040160009054906101000a900473ffffffffffffffffffffffffffffffffffffffff1673ffffffffffffffffffffffffffffffffffffffff161415611f25576000600182611d3f91906127ed565b905060006005600083815260200190815260200160002090508060405180610140016040529081600082015481526020016001820160009054906101000a900473ffffffffffffffffffffffffffffffffffffffff1673ffffffffffffffffffffffffffffffffffffffff1673ffffffffffffffffffffffffffffffffffffffff16815260200160028201548152602001600382015481526020016004820160009054906101000a900473ffffffffffffffffffffffffffffffffffffffff1673ffffffffffffffffffffffffffffffffffffffff1673ffffffffffffffffffffffffffffffffffffffff1681526020016005820160009054906101000a900473ffffffffffffffffffffffffffffffffffffffff1673ffffffffffffffffffffffffffffffffffffffff1673ffffffffffffffffffffffffffffffffffffffff168152602001600682015481526020016007820160009054906101000a900460ff16151515158152602001600882015481526020016009820160009054906101000a900460ff161515151581525050848681518110611f08577f4e487b7100000000000000000000000000000000000000000000000000000000600052603260045260246000fd5b6020026020010181905250600185611f2091906127ed565b945050505b8080611f3090612907565b915050611cb2565b508094505050505090565b600081600001549050919050565b6001816000016000828254019250508190555050565b60405180610140016040528060008152602001600073ffffffffffffffffffffffffffffffffffffffff1681526020016000815260200160008152602001600073ffffffffffffffffffffffffffffffffffffffff168152602001600073ffffffffffffffffffffffffffffffffffffffff16815260200160008152602001600015158152602001600081526020016000151581525090565b60008135905061200f81612b62565b92915050565b60008135905061202481612b79565b92915050565b60008135905061203981612b90565b92915050565b6000806040838503121561205257600080fd5b600061206085828601612000565b92505060206120718582860161202a565b9150509250929050565b60008060008060008060c0878903121561209457600080fd5b60006120a289828a01612000565b96505060206120b389828a0161202a565b95505060406120c489828a0161202a565b94505060606120d589828a0161202a565b93505060806120e689828a01612015565b92505060a06120f789828a0161202a565b9150509295509295509295565b60006020828403121561211657600080fd5b60006121248482850161202a565b91505092915050565b60008060006060848603121561214257600080fd5b60006121508682870161202a565b93505060206121618682870161202a565b925050604061217286828701612000565b9150509250925092565b600061218883836123fe565b60608301905092915050565b60006121a08383612440565b6101408301905092915050565b6121b6816128d1565b82525050565b6121c581612889565b82525050565b6121d481612877565b82525050565b6121e381612877565b82525050565b60006121f48261278a565b6121fe81856127ba565b93506122098361276a565b8060005b8381101561223a578151612221888261217c565b975061222c836127a0565b92505060018101905061220d565b5085935050505092915050565b600061225282612795565b61225c81856127cb565b93506122678361277a565b8060005b8381101561229857815161227f8882612194565b975061228a836127ad565b92505060018101905061226b565b5085935050505092915050565b6122ae8161289b565b82525050565b6122bd8161289b565b82525050565b60006122d06024836127dc565b91506122db8261297f565b604082019050919050565b60006122f36019836127dc565b91506122fe826129ce565b602082019050919050565b60006123166040836127dc565b9150612321826129f7565b604082019050919050565b6000612339601a836127dc565b915061234482612a46565b602082019050919050565b600061235c6024836127dc565b915061236782612a6f565b604082019050919050565b600061237f601b836127dc565b915061238a82612abe565b602082019050919050565b60006123a2601f836127dc565b91506123ad82612ae7565b602082019050919050565b60006123c5601c836127dc565b91506123d082612b10565b602082019050919050565b60006123e86011836127dc565b91506123f382612b39565b602082019050919050565b606082016000820151612414600085018261250c565b506020820151612427602085018261250c565b50604082015161243a60408501826121bc565b50505050565b61014082016000820151612457600085018261250c565b50602082015161246a60208501826121cb565b50604082015161247d604085018261250c565b506060820151612490606085018261250c565b5060808201516124a360808501826121bc565b5060a08201516124b660a08501826121bc565b5060c08201516124c960c085018261250c565b5060e08201516124dc60e08501826122a5565b506101008201516124f161010085018261250c565b506101208201516125066101208501826122a5565b50505050565b612515816128c7565b82525050565b612524816128c7565b82525050565b600060608201905061253f60008301866121da565b61254c60208301856121ad565b612559604083018461251b565b949350505050565b600060608201905061257660008301866121da565b61258360208301856121da565b612590604083018461251b565b949350505050565b600060208201905081810360008301526125b281846121e9565b905092915050565b600060208201905081810360008301526125d48184612247565b905092915050565b600060208201905081810360008301526125f5816122c3565b9050919050565b60006020820190508181036000830152612615816122e6565b9050919050565b6000602082019050818103600083015261263581612309565b9050919050565b600060208201905081810360008301526126558161232c565b9050919050565b600060208201905081810360008301526126758161234f565b9050919050565b6000602082019050818103600083015261269581612372565b9050919050565b600060208201905081810360008301526126b581612395565b9050919050565b600060208201905081810360008301526126d5816123b8565b9050919050565b600060208201905081810360008301526126f5816123db565b9050919050565b6000602082019050612711600083018461251b565b92915050565b600060a08201905061272c600083018861251b565b61273960208301876121da565b61274660408301866121da565b612753606083018561251b565b61276060808301846122b4565b9695505050505050565b6000819050602082019050919050565b6000819050602082019050919050565b600081519050919050565b600081519050919050565b6000602082019050919050565b6000602082019050919050565b600082825260208201905092915050565b600082825260208201905092915050565b600082825260208201905092915050565b60006127f8826128c7565b9150612803836128c7565b9250827fffffffffffffffffffffffffffffffffffffffffffffffffffffffffffffffff0382111561283857612837612950565b5b828201905092915050565b600061284e826128c7565b9150612859836128c7565b92508282101561286c5761286b612950565b5b828203905092915050565b6000612882826128a7565b9050919050565b6000612894826128a7565b9050919050565b60008115159050919050565b600073ffffffffffffffffffffffffffffffffffffffff82169050919050565b6000819050919050565b60006128dc826128e3565b9050919050565b60006128ee826128f5565b9050919050565b6000612900826128a7565b9050919050565b6000612912826128c7565b91507fffffffffffffffffffffffffffffffffffffffffffffffffffffffffffffffff82141561294557612944612950565b5b600182019050919050565b7f4e487b7100000000000000000000000000000000000000000000000000000000600052601160045260246000fd5b7f56616c7565206973206c657373207468616e207468652062696464696e67207060008201527f7269636500000000000000000000000000000000000000000000000000000000602082015250565b7f41756374696f6e20686173206e6f7420656e6465642079657400000000000000600082015250565b7f506c65617365207375626d6974207468652061736b696e67207072696365206960008201527f6e206f7264657220746f20636f6d706c65746520746865207075726368617365602082015250565b7f426964206973206c657373207468616e206c617374206269642e000000000000600082015250565b7f5072696365206d75737420626520657175616c20746f206c697374696e67207060008201527f7269636500000000000000000000000000000000000000000000000000000000602082015250565b7f426964206973206c657373207468616e206d696e2e2070726963650000000000600082015250565b7f5265656e7472616e637947756172643a207265656e7472616e742063616c6c00600082015250565b7f5072696365206d757374206265206174206c6561737420312077656900000000600082015250565b7f4974656d20616c726561647920736f6c64000000000000000000000000000000600082015250565b612b6b81612877565b8114612b7657600080fd5b50565b612b828161289b565b8114612b8d57600080fd5b50565b612b99816128c7565b8114612ba457600080fd5b5056fea2646970667358221220bfa2d0c2a04aa7561c2152286dbd7dcbb860bd9722497ea673701838f9781fd364736f6c63430008030033",
  "immutableReferences": {},
  "source": "// SPDX-License-Identifier: MIT OR Apache-2.0\npragma solidity ^0.8.3;\n\nimport \"@openzeppelin/contracts/utils/Counters.sol\";\nimport \"@openzeppelin/contracts/security/ReentrancyGuard.sol\";\nimport \"@openzeppelin/contracts/token/ERC721/ERC721.sol\";\n\ncontract NFTMarket is ReentrancyGuard {\n    using Counters for Counters.Counter;\n    Counters.Counter private _itemIds;\n    Counters.Counter private _itemsSold;\n\n    address payable owner;\n    uint256 listingPrice = 0.025 ether;\n\n    constructor() {\n        owner = payable(msg.sender);\n    }\n\n    struct MarketItem {\n        uint256 itemId;\n        address nftContract;\n        uint256 tokenId;\n        uint256 sellerId;\n        address payable seller;\n        address payable owner;\n        uint256 price;\n        bool isAuction;\n        uint256 sellDate;\n        bool sold;\n    }\n\n    struct Bid {\n        uint256 itemId;\n        uint256 bid;\n        address payable buyer;\n    }\n\n    mapping(uint256 => MarketItem) private idToMarketItem;\n\n    mapping(uint256 => Bid[]) private idToBid;\n\n    event MarketItemCreated(\n        uint256 indexed itemId,\n        address indexed nftContract,\n        uint256 indexed tokenId,\n        uint256 sellerId,\n        address seller,\n        address owner,\n        uint256 price,\n        bool sold\n    );\n\n    /* Returns the listing price of the contract */\n    function getListingPrice() public view returns (uint256) {\n        return listingPrice;\n    }\n\n    /* Places an item for sale on the marketplace */\n    function createMarketItem(\n        address nftContract,\n        uint256 tokenId,\n        uint256 price,\n        uint256 sellerId,\n        bool isAuction,\n        uint256 sellDate\n    ) public payable nonReentrant {\n        require(price > 0, \"Price must be at least 1 wei\");\n        require(\n            msg.value == listingPrice,\n            \"Price must be equal to listing price\"\n        );\n\n        _itemIds.increment();\n        uint256 itemId = _itemIds.current();\n\n        idToMarketItem[itemId] = MarketItem(\n            itemId,\n            nftContract,\n            tokenId,\n            sellerId,\n            payable(msg.sender),\n            payable(address(0)),\n            price,\n            isAuction,\n            sellDate,\n            false\n        );\n\n        IERC721(nftContract).transferFrom(msg.sender, address(this), tokenId);\n\n        emit MarketItemCreated(\n            itemId,\n            nftContract,\n            tokenId,\n            sellerId,\n            msg.sender,\n            address(0),\n            price,\n            false\n        );\n    }\n\n    /* Creates the sale of a marketplace item */\n    /* Transfers ownership of the item, as well as funds between parties */\n    function createMarketSale(address nftContract, uint256 itemId)\n        public\n        payable\n        nonReentrant\n    {\n        uint256 price = idToMarketItem[itemId].price;\n        uint256 tokenId = idToMarketItem[itemId].tokenId;\n        require(\n            msg.value == price,\n            \"Please submit the asking price in order to complete the purchase\"\n        );\n\n        idToMarketItem[itemId].seller.transfer(msg.value);\n        IERC721(nftContract).transferFrom(address(this), msg.sender, tokenId);\n        idToMarketItem[itemId].owner = payable(msg.sender);\n        idToMarketItem[itemId].sold = true;\n        _itemsSold.increment();\n        payable(owner).transfer(listingPrice);\n    }\n\n    function createBid(\n        uint256 itemId,\n        uint256 bid,\n        address buyer\n    ) public payable returns (Bid[] memory) {\n        require(msg.value == bid, \"Value is less than the bidding price\");\n        Bid[] memory bids = idToBid[itemId];\n        MarketItem memory item = idToMarketItem[itemId];\n        if (bids.length > 0) {\n            require(\n                bid > bids[bids.length - 1].bid,\n                \"Bid is less than last bid.\"\n            );\n        } else {\n            require(bid >= item.price, \"Bid is less than min. price\");\n        }\n\n        idToBid[itemId].push(Bid(itemId, bid, payable(buyer)));\n\n        return idToBid[itemId];\n    }\n\n    function createBidSale(uint256 itemId) public {\n        Bid[] memory bids = idToBid[itemId];\n        MarketItem memory item = idToMarketItem[itemId];\n        require(item.sold == false, \"Item already sold\");\n        require(item.sellDate < block.timestamp, \"Auction has not ended yet\");\n        // sell to highest bidder\n        Bid memory highestBid = bids[bids.length - 1];\n        item.seller.transfer(highestBid.bid);\n        IERC721(item.nftContract).transferFrom(\n            address(this),\n            highestBid.buyer,\n            item.tokenId\n        );\n        idToMarketItem[itemId].owner = payable(highestBid.buyer);\n        idToMarketItem[itemId].sold = true;\n        _itemsSold.increment();\n        payable(owner).transfer(listingPrice);\n\n        // return the money to other bidders\n        for (uint256 i = 0; i < bids.length - 2; i++) {\n            Bid memory currBid = bids[i];\n            payable(currBid.buyer).transfer(currBid.bid);\n        }\n    }\n\n    function fetchBids(uint256 itemId) public view returns (Bid[] memory) {\n        return idToBid[itemId];\n    }\n\n    /* Returns all unsold market items */\n    function fetchMarketItems() public view returns (MarketItem[] memory) {\n        uint256 itemCount = _itemIds.current();\n        uint256 unsoldItemCount = _itemIds.current() - _itemsSold.current();\n        uint256 currentIndex = 0;\n\n        MarketItem[] memory items = new MarketItem[](unsoldItemCount);\n        for (uint256 i = 0; i < itemCount; i++) {\n            if (idToMarketItem[i + 1].owner == address(0)) {\n                uint256 currentId = i + 1;\n                MarketItem storage currentItem = idToMarketItem[currentId];\n                items[currentIndex] = currentItem;\n                currentIndex += 1;\n            }\n        }\n        return items;\n    }\n\n    /* Returns onlyl items that a user has purchased */\n    function fetchMyNFTs() public view returns (MarketItem[] memory) {\n        uint256 totalItemCount = _itemIds.current();\n        uint256 itemCount = 0;\n        uint256 currentIndex = 0;\n\n        for (uint256 i = 0; i < totalItemCount; i++) {\n            if (idToMarketItem[i + 1].owner == msg.sender) {\n                itemCount += 1;\n            }\n        }\n\n        MarketItem[] memory items = new MarketItem[](itemCount);\n        for (uint256 i = 0; i < totalItemCount; i++) {\n            if (idToMarketItem[i + 1].owner == msg.sender) {\n                uint256 currentId = i + 1;\n                MarketItem storage currentItem = idToMarketItem[currentId];\n                items[currentIndex] = currentItem;\n                currentIndex += 1;\n            }\n        }\n        return items;\n    }\n\n    /* Returns only items a user has created */\n    function fetchItemsCreated() public view returns (MarketItem[] memory) {\n        uint256 totalItemCount = _itemIds.current();\n        uint256 itemCount = 0;\n        uint256 currentIndex = 0;\n\n        for (uint256 i = 0; i < totalItemCount; i++) {\n            if (idToMarketItem[i + 1].seller == msg.sender) {\n                itemCount += 1;\n            }\n        }\n\n        MarketItem[] memory items = new MarketItem[](itemCount);\n        for (uint256 i = 0; i < totalItemCount; i++) {\n            if (idToMarketItem[i + 1].seller == msg.sender) {\n                uint256 currentId = i + 1;\n                MarketItem storage currentItem = idToMarketItem[currentId];\n                items[currentIndex] = currentItem;\n                currentIndex += 1;\n            }\n        }\n        return items;\n    }\n}\n",
  "sourcePath": "/Users/i516376/Misc./ethereum-react-native-boilerplate/contracts/NFTMarket.sol",
  "compiler": {
    "name": "solc",
    "version": "0.8.3+commit.8d00100c.Emscripten.clang"
  },
  "schemaVersion": "3.4.3",
  "updatedAt": "2021-12-14T19:15:01.696Z",
  "networkType": "ethereum",
  "devdoc": {
    "kind": "dev",
    "methods": {},
    "version": 1
  },
  "userdoc": {
    "kind": "user",
    "methods": {},
    "version": 1
  }
}