{
  "contractName": "Users",
  "abi": [
    {
      "inputs": [],
      "stateMutability": "nonpayable",
      "type": "constructor"
    },
    {
      "anonymous": false,
      "inputs": [
        {
          "indexed": true,
          "internalType": "bytes32",
          "name": "name",
          "type": "bytes32"
        },
        {
          "indexed": true,
          "internalType": "uint256",
          "name": "id",
          "type": "uint256"
        },
        {
          "indexed": true,
          "internalType": "string",
          "name": "bio",
          "type": "string"
        }
      ],
      "name": "UserSignup",
      "type": "event"
    },
    {
      "inputs": [
        {
          "internalType": "bytes32",
          "name": "name",
          "type": "bytes32"
        },
        {
          "internalType": "string",
          "name": "bio",
          "type": "string"
        }
      ],
      "name": "signup",
      "outputs": [
        {
          "components": [
            {
              "internalType": "bytes32",
              "name": "name",
              "type": "bytes32"
            },
            {
              "internalType": "uint256",
              "name": "id",
              "type": "uint256"
            },
            {
              "internalType": "string",
              "name": "bio",
              "type": "string"
            },
            {
              "internalType": "address",
              "name": "uAddress",
              "type": "address"
            },
            {
              "internalType": "uint256[]",
              "name": "followers",
              "type": "uint256[]"
            },
            {
              "internalType": "uint256[]",
              "name": "following",
              "type": "uint256[]"
            }
          ],
          "internalType": "struct User",
          "name": "",
          "type": "tuple"
        }
      ],
      "stateMutability": "nonpayable",
      "type": "function"
    },
    {
      "inputs": [],
      "name": "fetchAllUsers",
      "outputs": [
        {
          "components": [
            {
              "internalType": "bytes32",
              "name": "name",
              "type": "bytes32"
            },
            {
              "internalType": "uint256",
              "name": "id",
              "type": "uint256"
            },
            {
              "internalType": "string",
              "name": "bio",
              "type": "string"
            },
            {
              "internalType": "address",
              "name": "uAddress",
              "type": "address"
            },
            {
              "internalType": "uint256[]",
              "name": "followers",
              "type": "uint256[]"
            },
            {
              "internalType": "uint256[]",
              "name": "following",
              "type": "uint256[]"
            }
          ],
          "internalType": "struct User[]",
          "name": "",
          "type": "tuple[]"
        }
      ],
      "stateMutability": "view",
      "type": "function",
      "constant": true
    },
    {
      "inputs": [
        {
          "internalType": "uint256",
          "name": "id",
          "type": "uint256"
        }
      ],
      "name": "followUser",
      "outputs": [],
      "stateMutability": "nonpayable",
      "type": "function"
    },
    {
      "inputs": [],
      "name": "fetchUserByAddress",
      "outputs": [
        {
          "components": [
            {
              "internalType": "bytes32",
              "name": "name",
              "type": "bytes32"
            },
            {
              "internalType": "uint256",
              "name": "id",
              "type": "uint256"
            },
            {
              "internalType": "string",
              "name": "bio",
              "type": "string"
            },
            {
              "internalType": "address",
              "name": "uAddress",
              "type": "address"
            },
            {
              "internalType": "uint256[]",
              "name": "followers",
              "type": "uint256[]"
            },
            {
              "internalType": "uint256[]",
              "name": "following",
              "type": "uint256[]"
            }
          ],
          "internalType": "struct User",
          "name": "user",
          "type": "tuple"
        }
      ],
      "stateMutability": "view",
      "type": "function",
      "constant": true
    }
  ],
  "bytecode": "0x608060405234801561001057600080fd5b50611796806100206000396000f3fe608060405234801561001057600080fd5b506004361061004c5760003560e01c80630a3c6801146100515780634dda73ac1461006d578063c33743151461009d578063eb8443dc146100bb575b600080fd5b61006b60048036038101906100669190611056565b6100d9565b005b61008760048036038101906100829190611002565b6102d3565b60405161009491906113bf565b60405180910390f35b6100a56107b3565b6040516100b2919061137d565b60405180910390f35b6100c3610a88565b6040516100d091906113bf565b60405180910390f35b6000806100e66000610e0d565b905060005b81811015610185573373ffffffffffffffffffffffffffffffffffffffff166001600060018461011b91906114e1565b815260200190815260200160002060030160009054906101000a900473ffffffffffffffffffffffffffffffffffffffff1673ffffffffffffffffffffffffffffffffffffffff1614156101725760019250610185565b808061017d90611622565b9150506100eb565b5060011515821515146101cd576040517f08c379a00000000000000000000000000000000000000000000000000000000081526004016101c49061139f565b60405180910390fd5b826000806101db6000610e0d565b905060005b8181101561022e5783600160006001846101fa91906114e1565b815260200190815260200160002060010154141561021b576001925061022e565b808061022690611622565b9150506101e0565b50600115158215151461024057600080fd5b600061024a610a88565b602001519050600160008281526020019081526020016000206005018790806001815401808255809150506001900390600052602060002001600090919091909150556001600088815260200190815260200160002060040181908060018154018082558091505060019003906000526020600020016000909190919091505550505050505050565b6102db610e31565b6000806102e86000610e0d565b905060005b81811015610387573373ffffffffffffffffffffffffffffffffffffffff166001600060018461031d91906114e1565b815260200190815260200160002060030160009054906101000a900473ffffffffffffffffffffffffffffffffffffffff1673ffffffffffffffffffffffffffffffffffffffff1614156103745760019250610387565b808061037f90611622565b9150506102ed565b50600015158215151461039957600080fd5b6103a36000610e1b565b60006103af6000610e0d565b90506040518060c001604052808781526020018281526020018681526020013373ffffffffffffffffffffffffffffffffffffffff168152602001600067ffffffffffffffff81111561042b577f4e487b7100000000000000000000000000000000000000000000000000000000600052604160045260246000fd5b6040519080825280602002602001820160405280156104595781602001602082028036833780820191505090505b508152602001600067ffffffffffffffff8111156104a0577f4e487b7100000000000000000000000000000000000000000000000000000000600052604160045260246000fd5b6040519080825280602002602001820160405280156104ce5781602001602082028036833780820191505090505b508152506001600083815260200190815260200160002060008201518160000155602082015181600101556040820151816002019080519060200190610515929190610e80565b5060608201518160030160006101000a81548173ffffffffffffffffffffffffffffffffffffffff021916908373ffffffffffffffffffffffffffffffffffffffff1602179055506080820151816004019080519060200190610579929190610f06565b5060a0820151816005019080519060200190610596929190610f06565b50905050846040516105a89190611366565b604051809103902081877f64098484837b3f6f0de5302e69ddb2a859a9699d06d40323313fa9e5dd97ad4460405160405180910390a4600160008281526020019081526020016000206040518060c00160405290816000820154815260200160018201548152602001600282018054610620906115bf565b80601f016020809104026020016040519081016040528092919081815260200182805461064c906115bf565b80156106995780601f1061066e57610100808354040283529160200191610699565b820191906000526020600020905b81548152906001019060200180831161067c57829003601f168201915b505050505081526020016003820160009054906101000a900473ffffffffffffffffffffffffffffffffffffffff1673ffffffffffffffffffffffffffffffffffffffff1673ffffffffffffffffffffffffffffffffffffffff1681526020016004820180548060200260200160405190810160405280929190818152602001828054801561074757602002820191906000526020600020905b815481526020019060010190808311610733575b505050505081526020016005820180548060200260200160405190810160405280929190818152602001828054801561079f57602002820191906000526020600020905b81548152602001906001019080831161078b575b505050505081525050935050505092915050565b606060006107c16000610e0d565b905060008167ffffffffffffffff811115610805577f4e487b7100000000000000000000000000000000000000000000000000000000600052604160045260246000fd5b60405190808252806020026020018201604052801561083e57816020015b61082b610e31565b8152602001906001900390816108235790505b50905060005b82811015610a7f5760006001600060018461085f91906114e1565b81526020019081526020016000209050806040518060c0016040529081600082015481526020016001820154815260200160028201805461089f906115bf565b80601f01602080910402602001604051908101604052809291908181526020018280546108cb906115bf565b80156109185780601f106108ed57610100808354040283529160200191610918565b820191906000526020600020905b8154815290600101906020018083116108fb57829003601f168201915b505050505081526020016003820160009054906101000a900473ffffffffffffffffffffffffffffffffffffffff1673ffffffffffffffffffffffffffffffffffffffff1673ffffffffffffffffffffffffffffffffffffffff168152602001600482018054806020026020016040519081016040528092919081815260200182805480156109c657602002820191906000526020600020905b8154815260200190600101908083116109b2575b5050505050815260200160058201805480602002602001604051908101604052809291908181526020018280548015610a1e57602002820191906000526020600020905b815481526020019060010190808311610a0a575b505050505081525050838381518110610a60577f4e487b7100000000000000000000000000000000000000000000000000000000600052603260045260246000fd5b6020026020010181905250508080610a7790611622565b915050610844565b50809250505090565b610a90610e31565b600080610a9d6000610e0d565b905060005b81811015610b3c573373ffffffffffffffffffffffffffffffffffffffff1660016000600184610ad291906114e1565b815260200190815260200160002060030160009054906101000a900473ffffffffffffffffffffffffffffffffffffffff1673ffffffffffffffffffffffffffffffffffffffff161415610b295760019250610b3c565b8080610b3490611622565b915050610aa2565b506001151582151514610b84576040517f08c379a0000000000000000000000000000000000000000000000000000000008152600401610b7b9061139f565b60405180910390fd5b6000610b906000610e0d565b905060005b81811015610e05573373ffffffffffffffffffffffffffffffffffffffff1660016000600184610bc591906114e1565b815260200190815260200160002060030160009054906101000a900473ffffffffffffffffffffffffffffffffffffffff1673ffffffffffffffffffffffffffffffffffffffff161415610df25760016000600183610c2491906114e1565b81526020019081526020016000206040518060c00160405290816000820154815260200160018201548152602001600282018054610c61906115bf565b80601f0160208091040260200160405190810160405280929190818152602001828054610c8d906115bf565b8015610cda5780601f10610caf57610100808354040283529160200191610cda565b820191906000526020600020905b815481529060010190602001808311610cbd57829003601f168201915b505050505081526020016003820160009054906101000a900473ffffffffffffffffffffffffffffffffffffffff1673ffffffffffffffffffffffffffffffffffffffff1673ffffffffffffffffffffffffffffffffffffffff16815260200160048201805480602002602001604051908101604052809291908181526020018280548015610d8857602002820191906000526020600020905b815481526020019060010190808311610d74575b5050505050815260200160058201805480602002602001604051908101604052809291908181526020018280548015610de057602002820191906000526020600020905b815481526020019060010190808311610dcc575b50505050508152505094505050610e08565b8080610dfd90611622565b915050610b95565b50505b505090565b600081600001549050919050565b6001816000016000828254019250508190555050565b6040518060c00160405280600080191681526020016000815260200160608152602001600073ffffffffffffffffffffffffffffffffffffffff16815260200160608152602001606081525090565b828054610e8c906115bf565b90600052602060002090601f016020900481019282610eae5760008555610ef5565b82601f10610ec757805160ff1916838001178555610ef5565b82800160010185558215610ef5579182015b82811115610ef4578251825591602001919060010190610ed9565b5b509050610f029190610f53565b5090565b828054828255906000526020600020908101928215610f42579160200282015b82811115610f41578251825591602001919060010190610f26565b5b509050610f4f9190610f53565b5090565b5b80821115610f6c576000816000905550600101610f54565b5090565b6000610f83610f7e84611406565b6113e1565b905082815260208101848484011115610f9b57600080fd5b610fa684828561157d565b509392505050565b600081359050610fbd81611732565b92915050565b600082601f830112610fd457600080fd5b8135610fe4848260208601610f70565b91505092915050565b600081359050610ffc81611749565b92915050565b6000806040838503121561101557600080fd5b600061102385828601610fae565b925050602083013567ffffffffffffffff81111561104057600080fd5b61104c85828601610fc3565b9150509250929050565b60006020828403121561106857600080fd5b600061107684828501610fed565b91505092915050565b600061108b8383611229565b905092915050565b600061109f8383611357565b60208301905092915050565b6110b481611537565b82525050565b60006110c582611457565b6110cf8185611492565b9350836020820285016110e185611437565b8060005b8581101561111d57848403895281516110fe858261107f565b945061110983611478565b925060208a019950506001810190506110e5565b50829750879550505050505092915050565b600061113a82611462565b61114481856114a3565b935061114f83611447565b8060005b838110156111805781516111678882611093565b975061117283611485565b925050600181019050611153565b5085935050505092915050565b61119681611549565b82525050565b60006111a78261146d565b6111b181856114b4565b93506111c181856020860161158c565b6111ca816116f8565b840191505092915050565b60006111e08261146d565b6111ea81856114d6565b93506111fa81856020860161158c565b80840191505092915050565b6000611213600d836114c5565b915061121e82611709565b602082019050919050565b600060c083016000830151611241600086018261118d565b5060208301516112546020860182611357565b506040830151848203604086015261126c828261119c565b915050606083015161128160608601826110ab565b5060808301518482036080860152611299828261112f565b91505060a083015184820360a08601526112b3828261112f565b9150508091505092915050565b600060c0830160008301516112d8600086018261118d565b5060208301516112eb6020860182611357565b5060408301518482036040860152611303828261119c565b915050606083015161131860608601826110ab565b5060808301518482036080860152611330828261112f565b91505060a083015184820360a086015261134a828261112f565b9150508091505092915050565b61136081611573565b82525050565b600061137282846111d5565b915081905092915050565b6000602082019050818103600083015261139781846110ba565b905092915050565b600060208201905081810360008301526113b881611206565b9050919050565b600060208201905081810360008301526113d981846112c0565b905092915050565b60006113eb6113fc565b90506113f782826115f1565b919050565b6000604051905090565b600067ffffffffffffffff821115611421576114206116c9565b5b61142a826116f8565b9050602081019050919050565b6000819050602082019050919050565b6000819050602082019050919050565b600081519050919050565b600081519050919050565b600081519050919050565b6000602082019050919050565b6000602082019050919050565b600082825260208201905092915050565b600082825260208201905092915050565b600082825260208201905092915050565b600082825260208201905092915050565b600081905092915050565b60006114ec82611573565b91506114f783611573565b9250827fffffffffffffffffffffffffffffffffffffffffffffffffffffffffffffffff0382111561152c5761152b61166b565b5b828201905092915050565b600061154282611553565b9050919050565b6000819050919050565b600073ffffffffffffffffffffffffffffffffffffffff82169050919050565b6000819050919050565b82818337600083830152505050565b60005b838110156115aa57808201518184015260208101905061158f565b838111156115b9576000848401525b50505050565b600060028204905060018216806115d757607f821691505b602082108114156115eb576115ea61169a565b5b50919050565b6115fa826116f8565b810181811067ffffffffffffffff82111715611619576116186116c9565b5b80604052505050565b600061162d82611573565b91507fffffffffffffffffffffffffffffffffffffffffffffffffffffffffffffffff8214156116605761165f61166b565b5b600182019050919050565b7f4e487b7100000000000000000000000000000000000000000000000000000000600052601160045260246000fd5b7f4e487b7100000000000000000000000000000000000000000000000000000000600052602260045260246000fd5b7f4e487b7100000000000000000000000000000000000000000000000000000000600052604160045260246000fd5b6000601f19601f8301169050919050565b7f4e6f207573657220666f756e6400000000000000000000000000000000000000600082015250565b61173b81611549565b811461174657600080fd5b50565b61175281611573565b811461175d57600080fd5b5056fea26469706673582212208e4929fd0a1c7128573195cba26f5083120f7e63da1cbcbd4ec34cd3c123b5c464736f6c63430008030033",
  "immutableReferences": {},
  "source": "// SPDX-License-Identifier: MIT OR Apache-2.0\npragma solidity ^0.8.3;\n\nimport \"@openzeppelin/contracts/utils/Counters.sol\";\n\nstruct User {\n    bytes32 name;\n    uint256 id;\n    string bio;\n    address uAddress;\n    uint256[] followers;\n    uint256[] following;\n}\n\ncontract Users {\n    using Counters for Counters.Counter;\n    Counters.Counter private _ids;\n\n    mapping(uint256 => User) private idToUser;\n\n    event UserSignup(\n        bytes32 indexed name,\n        uint256 indexed id,\n        string indexed bio\n    );\n\n    constructor() {}\n\n    function signup(bytes32 name, string memory bio) public noUserExist returns (User memory) {\n        _ids.increment();\n        uint256 id = _ids.current();\n        idToUser[id] = User(\n            name,\n            id,\n            bio,\n            msg.sender,\n            new uint256[](0),\n            new uint256[](0)\n        );\n\n        emit UserSignup(\n            name,\n            id,\n            bio\n        );\n\n        return idToUser[id];\n    }\n\n    function fetchAllUsers() public view returns (User[] memory) {\n        uint256 itemCount = _ids.current();\n        User[] memory users = new User[](itemCount);\n\n        for (uint256 i = 0; i < itemCount; i++) {\n            User storage currentUser = idToUser[i + 1];\n            users[i] = currentUser;\n        }\n\n        return users;\n    }\n\n    function followUser(uint256 id) public isUserExist isIdExist(id) {\n        uint256 userId = fetchUserByAddress().id;\n        // Mutate user object\n        idToUser[userId].following.push(id);\n        // Mutate follower object\n        idToUser[id].followers.push(userId);\n    }\n\n    function fetchUserByAddress()\n        public\n        view\n        isUserExist\n        returns (User memory user)\n    {\n        uint256 itemCount = _ids.current();\n        for (uint256 i = 0; i < itemCount; i++) {\n            if (idToUser[i + 1].uAddress == msg.sender) {\n                return idToUser[i + 1];\n            }\n        }\n    }\n\n    modifier noUserExist() {\n        bool userFound = false;\n        uint256 itemCount = _ids.current();\n        for (uint256 i = 0; i < itemCount; i++) {\n            if (idToUser[i + 1].uAddress == msg.sender) {\n                userFound = true;\n                break;\n            }\n        }\n        require(userFound == false);\n        _;\n    }\n\n    modifier isUserExist() {\n        bool userFound = false;\n        uint256 itemCount = _ids.current();\n        for (uint256 i = 0; i < itemCount; i++) {\n            if (idToUser[i + 1].uAddress == msg.sender) {\n                userFound = true;\n                break;\n            }\n        }\n        require(userFound == true, \"No user found\");\n        _;\n    }\n\n    modifier isIdExist(uint256 id) {\n        bool userFound = false;\n        uint256 itemCount = _ids.current();\n        for (uint256 i = 0; i < itemCount; i++) {\n            if (idToUser[i + 1].id == id) {\n                userFound = true;\n                break;\n            }\n        }\n        require(userFound == true);\n        _;\n    }\n}\n",
  "sourcePath": "/Users/i516376/Misc./ethereum-react-native-boilerplate/contracts/Users.sol",
  "compiler": {
    "name": "solc",
    "version": "0.8.3+commit.8d00100c.Emscripten.clang"
  },
  "schemaVersion": "3.4.3",
  "updatedAt": "2021-12-06T09:28:09.253Z",
  "networkType": "ethereum",
  "devdoc": {
    "kind": "dev",
    "methods": {},
    "version": 1
  },
  "userdoc": {
    "kind": "user",
    "methods": {},
    "version": 1
  }
}